{"abi":[{"type":"function","name":"MIN_FREQUENCY","inputs":[],"outputs":[{"name":"","type":"uint256","internalType":"uint256"}],"stateMutability":"view"},{"type":"function","name":"TREASURY","inputs":[],"outputs":[{"name":"","type":"address","internalType":"address"}],"stateMutability":"view"},{"type":"function","name":"canExecute","inputs":[{"name":"subscriber","type":"address","internalType":"address"}],"outputs":[{"name":"","type":"bool","internalType":"bool"}],"stateMutability":"view"},{"type":"function","name":"execute","inputs":[{"name":"subscriber","type":"address","internalType":"address"}],"outputs":[{"name":"nextExectuionTimestamp","type":"uint256","internalType":"uint256"}],"stateMutability":"nonpayable"},{"type":"function","name":"frequency","inputs":[],"outputs":[{"name":"","type":"uint256","internalType":"uint256"}],"stateMutability":"view"},{"type":"function","name":"getSubscriberLastExecutionTimestamp","inputs":[{"name":"subscriber","type":"address","internalType":"address"}],"outputs":[{"name":"subscriberLastExecutionTimestamp","type":"uint256","internalType":"uint256"}],"stateMutability":"view"},{"type":"function","name":"initialize","inputs":[{"name":"merchantName_","type":"string","internalType":"string"},{"name":"settlementAddress_","type":"address","internalType":"address"},{"name":"tokenAddress_","type":"address","internalType":"address"},{"name":"subscriptionCost_","type":"uint256","internalType":"uint256"},{"name":"frequency_","type":"uint256","internalType":"uint256"},{"name":"processingFee_","type":"uint8","internalType":"uint8"}],"outputs":[],"stateMutability":"nonpayable"},{"type":"function","name":"isSubscriber","inputs":[{"name":"subscriber","type":"address","internalType":"address"}],"outputs":[{"name":"","type":"bool","internalType":"bool"}],"stateMutability":"view"},{"type":"function","name":"isTerminated","inputs":[],"outputs":[{"name":"","type":"bool","internalType":"bool"}],"stateMutability":"view"},{"type":"function","name":"merchantName","inputs":[],"outputs":[{"name":"","type":"string","internalType":"string"}],"stateMutability":"view"},{"type":"function","name":"processingFee","inputs":[],"outputs":[{"name":"","type":"uint8","internalType":"uint8"}],"stateMutability":"view"},{"type":"function","name":"settlementAddress","inputs":[],"outputs":[{"name":"","type":"address","internalType":"address"}],"stateMutability":"view"},{"type":"function","name":"subscribe","inputs":[],"outputs":[],"stateMutability":"nonpayable"},{"type":"function","name":"subscriptionCost","inputs":[],"outputs":[{"name":"","type":"uint256","internalType":"uint256"}],"stateMutability":"view"},{"type":"function","name":"terminate","inputs":[],"outputs":[],"stateMutability":"nonpayable"},{"type":"function","name":"tokenAddress","inputs":[],"outputs":[{"name":"","type":"address","internalType":"address"}],"stateMutability":"view"},{"type":"function","name":"unsubscribe","inputs":[{"name":"subscriber","type":"address","internalType":"address"}],"outputs":[],"stateMutability":"nonpayable"},{"type":"function","name":"unsubscribe","inputs":[],"outputs":[],"stateMutability":"nonpayable"},{"type":"event","name":"Executed","inputs":[{"name":"contractAddress","type":"address","indexed":false,"internalType":"address"},{"name":"executor","type":"address","indexed":false,"internalType":"address"},{"name":"subscriber","type":"address","indexed":false,"internalType":"address"},{"name":"merchantName","type":"string","indexed":false,"internalType":"string"},{"name":"settlementAddress","type":"address","indexed":false,"internalType":"address"},{"name":"transfered","type":"uint256","indexed":false,"internalType":"uint256"},{"name":"fee","type":"uint256","indexed":false,"internalType":"uint256"},{"name":"nextExecutionTimestamp","type":"uint256","indexed":false,"internalType":"uint256"}],"anonymous":false},{"type":"event","name":"Initialized","inputs":[{"name":"version","type":"uint8","indexed":false,"internalType":"uint8"}],"anonymous":false},{"type":"event","name":"Subscribed","inputs":[{"name":"contractAddress","type":"address","indexed":false,"internalType":"address"},{"name":"subscriber","type":"address","indexed":false,"internalType":"address"},{"name":"settlementAddress","type":"address","indexed":false,"internalType":"address"},{"name":"merchantName","type":"string","indexed":false,"internalType":"string"},{"name":"transfered","type":"uint256","indexed":false,"internalType":"uint256"},{"name":"fee","type":"uint256","indexed":false,"internalType":"uint256"},{"name":"lastExecutionTimestamp","type":"uint256","indexed":false,"internalType":"uint256"},{"name":"nextExecutionTimestamp","type":"uint256","indexed":false,"internalType":"uint256"}],"anonymous":false},{"type":"event","name":"Terminated","inputs":[{"name":"contractAddress","type":"address","indexed":false,"internalType":"address"}],"anonymous":false},{"type":"event","name":"Unsubscribed","inputs":[{"name":"contractAddress","type":"address","indexed":false,"internalType":"address"},{"name":"subscriber","type":"address","indexed":false,"internalType":"address"}],"anonymous":false}],"bytecode":{"object":"0x60806040526000805462ff0000191690556002805460ff1916601e179055603c60055534801561002e57600080fd5b506116448061003e6000396000f3fe608060405234801561001057600080fd5b50600436106101165760003560e01c80638f449a05116100a2578063d9c973e211610071578063d9c973e214610244578063de1881a814610259578063ead50da314610278578063f738c4a714610281578063fcae44841461029957600080fd5b80638f449a05146101eb5780639d76ea58146101f3578063c4804ef014610206578063d1cc99761461023157600080fd5b80634b64e492116100e95780634b64e492146101865780637262561c146101995780637daa1201146101ac5780637dd39fa7146101bf57806385c99e2b146101c857600080fd5b80630c08bf881461011b57806318426201146101255780632bddb8ba1461014b5780632d2c556514610153575b600080fd5b6101236102a1565b005b61013861013336600461112b565b61033c565b6040519081526020015b60405180910390f35b610138603c81565b61016e73d9d0aa3fc1616ee96fe38f3ebaf9eac3862a9d4e81565b6040516001600160a01b039091168152602001610142565b61013861019436600461112b565b6103b5565b6101236101a736600461112b565b610479565b6101236101ba366004611174565b61059a565b61013860045481565b6101db6101d636600461112b565b61094d565b6040519015158152602001610142565b610123610a94565b60035461016e906001600160a01b031681565b6101db61021436600461112b565b6001600160a01b0316600090815260066020526040902054151590565b6000546101db9062010000900460ff1681565b61024c610bfc565b604051610142919061128d565b6002546102669060ff1681565b60405160ff9091168152602001610142565b61013860055481565b60025461016e9061010090046001600160a01b031681565b610123610c8a565b60025461010090046001600160a01b031633146102f65760405162461bcd60e51b815260206004820152600e60248201526d2928299d102337b93134b23232b760911b60448201526064015b60405180910390fd5b6000805462ff00001916620100001790556040513081527f98cd97fc1a1cc958cbd729b1bb531d4f3ea4925470bf23ea9af386640cbd07be9060200160405180910390a1565b6001600160a01b0381166000908152600660205260408120546103995760405162461bcd60e51b81526020600482015260156024820152742928299d102737ba10309039bab139b1b934b132b960591b60448201526064016102ed565b506001600160a01b031660009081526006602052604090205490565b60006103c08261094d565b6104015760405162461bcd60e51b81526020600482015260126024820152715250533a2043616e2774206578656375746560701b60448201526064016102ed565b600080600061040f85610c95565b9250925092507fe5319f89a152a88f8e3e316db1f360dc12deb59d8aeb7aac6b9b953551114e613033876001600260019054906101000a90046001600160a01b031686888a604051610468989796959493929190611377565b60405180910390a150909392505050565b6001600160a01b0381166000908152600660205260409020546104de5760405162461bcd60e51b815260206004820152601960248201527f5250533a2053756273637269626572206e6f7420666f756e640000000000000060448201526064016102ed565b60025461010090046001600160a01b03163314806105045750336001600160a01b038216145b6105415760405162461bcd60e51b815260206004820152600e60248201526d2928299d102337b93134b23232b760911b60448201526064016102ed565b6001600160a01b0381166000818152600660209081526040808320929092558151308152908101929092527f7773c30acd0762ed6b4b92a9aa2c6b3c074e29ad93b334cbed8ba807c596f13a910160405180910390a150565b600054610100900460ff16158080156105ba5750600054600160ff909116105b806105d45750303b1580156105d4575060005460ff166001145b6106375760405162461bcd60e51b815260206004820152602e60248201527f496e697469616c697a61626c653a20636f6e747261637420697320616c72656160448201526d191e481a5b9a5d1a585b1a5e995960921b60648201526084016102ed565b6000805460ff19166001179055801561065a576000805461ff0019166101001790555b6001600160a01b0386166106b05760405162461bcd60e51b815260206004820152601f60248201527f5250533a20496e76616c696420736574746c656d656e7420616464726573730060448201526064016102ed565b6001600160a01b0385166107065760405162461bcd60e51b815260206004820152601a60248201527f5250533a20496e76616c696420746f6b656e206164647265737300000000000060448201526064016102ed565b61070f85610dc7565b61076c5760405162461bcd60e51b815260206004820152602860248201527f5250533a2050726f766964656420746f6b656e2061646472657373206973206e60448201526706f742045524332360c41b60648201526084016102ed565b60018410156107d15760405162461bcd60e51b815260206004820152602b60248201527f5250533a20537562736372697074696f6e20636f73742073686f756c6420626560448201526a206174206c65617374203160a81b60648201526084016102ed565b603c8310156108355760405162461bcd60e51b815260206004820152602a60248201527f5250533a204672657175656e63792073686f756c64206265206174206c656173604482015269742031206d696e75746560b01b60648201526084016102ed565b60648260ff1611156108a15760405162461bcd60e51b815260206004820152602f60248201527f5250533a2050726f63657373696e6720666565206d757374206265206c65737360448201526e207468616e2031303020283130252960881b60648201526084016102ed565b60016108ad888261141f565b5060028054600380546001600160a01b0319166001600160a01b0389811691909117909155600487905560058690556001600160a81b03199091166101009189169190910260ff19161760ff84161790558015610944576000805461ff0019169055604051600181527f7f26b83ff96e1f2b6a682f133852f6798a09c465da95921460cefb38474024989060200160405180910390a15b50505050505050565b6000805462010000900460ff16156109a75760405162461bcd60e51b815260206004820152601c60248201527f5250533a20436f6e747261637420776173207465726d696e617465640000000060448201526064016102ed565b6001600160a01b038216600090815260066020526040902054610a045760405162461bcd60e51b81526020600482015260156024820152742928299d102737ba10309039bab139b1b934b132b960591b60448201526064016102ed565b6001600160a01b038216600090815260066020526040902054600554610a2a90826114f5565b610a354260186114f5565b11610a825760405162461bcd60e51b815260206004820152601860248201527f5250533a20546f6f20736f6f6e20746f2065786563757465000000000000000060448201526064016102ed565b610a8b83610e68565b50600192915050565b600054339062010000900460ff1615610aef5760405162461bcd60e51b815260206004820152601c60248201527f5250533a20436f6e747261637420776173207465726d696e617465640000000060448201526064016102ed565b6001600160a01b03811660009081526006602052604090205415610b555760405162461bcd60e51b815260206004820152601760248201527f5250533a20416c7265616479207375627363726962656400000000000000000060448201526064016102ed565b610b5e81610e68565b6005544290610b6d908261150e565b6001600160a01b0383166000908152600660205260408120919091558080610b9485610c95565b9250925092507f7331151d9fd1c8a0d7a121d64192fc94f99dba4cbc16b6c61c2d0f4f42f51cad3086600260019054906101000a90046001600160a01b0316600185878a8a604051610bed989796959493929190611521565b60405180910390a15050505050565b60018054610c09906112c0565b80601f0160208091040260200160405190810160405280929190818152602001828054610c35906112c0565b8015610c825780601f10610c5757610100808354040283529160200191610c82565b820191906000526020600020905b815481529060010190602001808311610c6557829003601f168201915b505050505081565b610c9333610479565b565b600080600080610ca48561033c565b6002546004549192506000916103e891610cc39160ff9091169061157e565b610ccd9190611595565b9050600081600454610cdf919061150e565b600354909150610d0e906001600160a01b03168873d9d0aa3fc1616ee96fe38f3ebaf9eac3862a9d4e85610ff8565b600354600254610d33916001600160a01b03908116918a916101009091041684610ff8565b600060055484610d4391906114f5565b9050600060055482610d5591906114f5565b90504260055483610d6691906114f5565b1015610d9c576001600160a01b03891660009081526006602052604090204290819055600554610d95916114f5565b9050610db8565b6001600160a01b03891660009081526006602052604090208290555b98929750909550909350505050565b60408051600481526024810182526020810180516001600160e01b03166318160ddd60e01b1790529051600091829182916001600160a01b03861691610e0d91906115b7565b600060405180830381855afa9150503d8060008114610e48576040519150601f19603f3d011682016040523d82523d6000602084013e610e4d565b606091505b5091509150818015610e60575060008151115b949350505050565b60035460048054604051636eb1769f60e11b81526001600160a01b0385811693820193909352306024820152919092169190829063dd62ed3e90604401602060405180830381865afa158015610ec2573d6000803e3d6000fd5b505050506040513d601f19601f82011682018060405250810190610ee691906115d3565b1015610f345760405162461bcd60e51b815260206004820152601960248201527f5250533a20416c6c6f77616e636520697320746f6f206c6f770000000000000060448201526064016102ed565b600480546040516370a0823160e01b81526001600160a01b038581169382019390935290918316906370a0823190602401602060405180830381865afa158015610f82573d6000803e3d6000fd5b505050506040513d601f19601f82011682018060405250810190610fa691906115d3565b1015610ff45760405162461bcd60e51b815260206004820152601c60248201527f5250533a20557365722062616c616e636520697320746f6f206c6f770000000060448201526064016102ed565b5050565b604080516001600160a01b0385811660248301528481166044830152606480830185905283518084039091018152608490920183526020820180516001600160e01b03166323b872dd60e01b179052915160009283929088169161105c91906115b7565b6000604051808303816000865af19150503d8060008114611099576040519150601f19603f3d011682016040523d82523d6000602084013e61109e565b606091505b50915091508180156110c85750805115806110c85750808060200190518101906110c891906115ec565b6111075760405162461bcd60e51b815260206004820152601060248201526f165bdada4e8814d5118819985a5b195960821b60448201526064016102ed565b505050505050565b80356001600160a01b038116811461112657600080fd5b919050565b60006020828403121561113d57600080fd5b6111468261110f565b9392505050565b634e487b7160e01b600052604160045260246000fd5b803560ff8116811461112657600080fd5b60008060008060008060c0878903121561118d57600080fd5b863567ffffffffffffffff808211156111a557600080fd5b818901915089601f8301126111b957600080fd5b8135818111156111cb576111cb61114d565b604051601f8201601f19908116603f011681019083821181831017156111f3576111f361114d565b816040528281528c602084870101111561120c57600080fd5b82602086016020830137600060208483010152809a5050505050506112336020880161110f565b94506112416040880161110f565b9350606087013592506080870135915061125d60a08801611163565b90509295509295509295565b60005b8381101561128457818101518382015260200161126c565b50506000910152565b60208152600082518060208401526112ac816040850160208701611269565b601f01601f19169190910160400192915050565b600181811c908216806112d457607f821691505b6020821081036112f457634e487b7160e01b600052602260045260246000fd5b50919050565b60008154611307816112c0565b808552602060018381168015611324576001811461133e5761136c565b60ff1985168884015283151560051b88018301955061136c565b866000528260002060005b858110156113645781548a8201860152908301908401611349565b890184019650505b505050505092915050565b6001600160a01b03898116825288811660208301528781166040830152610100606083018190526000916113ad8483018a6112fa565b97166080840152505060a081019390935260c083019190915260e090910152949350505050565b601f82111561141a57600081815260208120601f850160051c810160208610156113fb5750805b601f850160051c820191505b8181101561110757828155600101611407565b505050565b815167ffffffffffffffff8111156114395761143961114d565b61144d8161144784546112c0565b846113d4565b602080601f831160018114611482576000841561146a5750858301515b600019600386901b1c1916600185901b178555611107565b600085815260208120601f198616915b828110156114b157888601518255948401946001909101908401611492565b50858210156114cf5787850151600019600388901b60f8161c191681555b5050505050600190811b01905550565b634e487b7160e01b600052601160045260246000fd5b80820180821115611508576115086114df565b92915050565b81810381811115611508576115086114df565b6001600160a01b03898116825288811660208301528716604082015261010060608201819052600090611556838201896112fa565b9150508560808301528460a08301528360c08301528260e08301529998505050505050505050565b8082028115828204841417611508576115086114df565b6000826115b257634e487b7160e01b600052601260045260246000fd5b500490565b600082516115c9818460208701611269565b9190910192915050565b6000602082840312156115e557600080fd5b5051919050565b6000602082840312156115fe57600080fd5b8151801515811461114657600080fdfea26469706673582212203f6f50b2829366be25792b2d50b3c827a5013756c9c502a70bf2b1fb01e4bdaf64736f6c63430008140033","linkReferences":{}},"methodIdentifiers":{"MIN_FREQUENCY()":"2bddb8ba","TREASURY()":"2d2c5565","canExecute(address)":"85c99e2b","execute(address)":"4b64e492","frequency()":"ead50da3","getSubscriberLastExecutionTimestamp(address)":"18426201","initialize(string,address,address,uint256,uint256,uint8)":"7daa1201","isSubscriber(address)":"c4804ef0","isTerminated()":"d1cc9976","merchantName()":"d9c973e2","processingFee()":"de1881a8","settlementAddress()":"f738c4a7","subscribe()":"8f449a05","subscriptionCost()":"7dd39fa7","terminate()":"0c08bf88","tokenAddress()":"9d76ea58","unsubscribe()":"fcae4484","unsubscribe(address)":"7262561c"},"id":37}