{"abi":[{"type":"constructor","inputs":[{"name":"rpsImp_","type":"address","internalType":"address"},{"name":"admins","type":"address[]","internalType":"address[]"}],"stateMutability":"nonpayable"},{"type":"function","name":"DEFAULT_ADMIN_ROLE","inputs":[],"outputs":[{"name":"","type":"bytes32","internalType":"bytes32"}],"stateMutability":"view"},{"type":"function","name":"createRPS","inputs":[{"name":"merchantName","type":"string","internalType":"string"},{"name":"merchantAddress","type":"address","internalType":"address"},{"name":"tokenAddress","type":"address","internalType":"address"},{"name":"subscriptionCost","type":"uint256","internalType":"uint256"},{"name":"frequency","type":"uint256","internalType":"uint256"},{"name":"fee","type":"uint8","internalType":"uint8"}],"outputs":[{"name":"newRpsProxy","type":"address","internalType":"address"}],"stateMutability":"nonpayable"},{"type":"function","name":"getRoleAdmin","inputs":[{"name":"role","type":"bytes32","internalType":"bytes32"}],"outputs":[{"name":"","type":"bytes32","internalType":"bytes32"}],"stateMutability":"view"},{"type":"function","name":"grantRole","inputs":[{"name":"role","type":"bytes32","internalType":"bytes32"},{"name":"account","type":"address","internalType":"address"}],"outputs":[],"stateMutability":"nonpayable"},{"type":"function","name":"hasRole","inputs":[{"name":"role","type":"bytes32","internalType":"bytes32"},{"name":"account","type":"address","internalType":"address"}],"outputs":[{"name":"","type":"bool","internalType":"bool"}],"stateMutability":"view"},{"type":"function","name":"renounceRole","inputs":[{"name":"role","type":"bytes32","internalType":"bytes32"},{"name":"account","type":"address","internalType":"address"}],"outputs":[],"stateMutability":"nonpayable"},{"type":"function","name":"revokeRole","inputs":[{"name":"role","type":"bytes32","internalType":"bytes32"},{"name":"account","type":"address","internalType":"address"}],"outputs":[],"stateMutability":"nonpayable"},{"type":"function","name":"rpsImpl","inputs":[],"outputs":[{"name":"","type":"address","internalType":"address"}],"stateMutability":"view"},{"type":"function","name":"supportsInterface","inputs":[{"name":"interfaceId","type":"bytes4","internalType":"bytes4"}],"outputs":[{"name":"","type":"bool","internalType":"bool"}],"stateMutability":"view"},{"type":"event","name":"RPSCreated","inputs":[{"name":"contractAddress","type":"address","indexed":true,"internalType":"address"},{"name":"merchantName","type":"string","indexed":false,"internalType":"string"}],"anonymous":false},{"type":"event","name":"RoleAdminChanged","inputs":[{"name":"role","type":"bytes32","indexed":true,"internalType":"bytes32"},{"name":"previousAdminRole","type":"bytes32","indexed":true,"internalType":"bytes32"},{"name":"newAdminRole","type":"bytes32","indexed":true,"internalType":"bytes32"}],"anonymous":false},{"type":"event","name":"RoleGranted","inputs":[{"name":"role","type":"bytes32","indexed":true,"internalType":"bytes32"},{"name":"account","type":"address","indexed":true,"internalType":"address"},{"name":"sender","type":"address","indexed":true,"internalType":"address"}],"anonymous":false},{"type":"event","name":"RoleRevoked","inputs":[{"name":"role","type":"bytes32","indexed":true,"internalType":"bytes32"},{"name":"account","type":"address","indexed":true,"internalType":"address"},{"name":"sender","type":"address","indexed":true,"internalType":"address"}],"anonymous":false}],"bytecode":{"object":"0x60806040523480156200001157600080fd5b5060405162000ddd38038062000ddd8339810160408190526200003491620001c8565b6001600160a01b0382166200004857600080fd5b600180546001600160a01b0319166001600160a01b03841617905562000070600033620000e5565b620000846420a226a4a760d91b33620000e5565b60005b8151811015620000dc57620000c76420a226a4a760d91b838381518110620000b357620000b3620002b1565b6020026020010151620000e560201b60201c565b80620000d381620002c7565b91505062000087565b505050620002ef565b620000f18282620000f5565b5050565b6000828152602081815260408083206001600160a01b038516845290915290205460ff16620000f1576000828152602081815260408083206001600160a01b03851684529091529020805460ff19166001179055620001513390565b6001600160a01b0316816001600160a01b0316837f2f8788117e7eff1d82e926ec794901d17c78024a50270940304540a733656f0d60405160405180910390a45050565b80516001600160a01b0381168114620001ad57600080fd5b919050565b634e487b7160e01b600052604160045260246000fd5b60008060408385031215620001dc57600080fd5b620001e78362000195565b602084810151919350906001600160401b03808211156200020757600080fd5b818601915086601f8301126200021c57600080fd5b815181811115620002315762000231620001b2565b8060051b604051601f19603f83011681018181108582111715620002595762000259620001b2565b6040529182528482019250838101850191898311156200027857600080fd5b938501935b82851015620002a157620002918562000195565b845293850193928501926200027d565b8096505050505050509250929050565b634e487b7160e01b600052603260045260246000fd5b600060018201620002e857634e487b7160e01b600052601160045260246000fd5b5060010190565b610ade80620002ff6000396000f3fe608060405234801561001057600080fd5b50600436106100935760003560e01c80634bf19d48116100665780634bf19d4814610119578063684b0efd1461014457806391d1485414610157578063a217fddf1461016a578063d547741f1461017257600080fd5b806301ffc9a714610098578063248a9ca3146100c05780632f2ff15d146100f157806336568abe14610106575b600080fd5b6100ab6100a636600461077a565b610185565b60405190151581526020015b60405180910390f35b6100e36100ce3660046107a4565b60009081526020819052604090206001015490565b6040519081526020016100b7565b6101046100ff3660046107d4565b6101bc565b005b6101046101143660046107d4565b6101e6565b60015461012c906001600160a01b031681565b6040516001600160a01b0390911681526020016100b7565b61012c610152366004610811565b610269565b6100ab6101653660046107d4565b61038e565b6100e3600081565b6101046101803660046107d4565b6103b7565b60006001600160e01b03198216637965db0b60e01b14806101b657506301ffc9a760e01b6001600160e01b03198316145b92915050565b6000828152602081905260409020600101546101d7816103dc565b6101e183836103e9565b505050565b6001600160a01b038116331461025b5760405162461bcd60e51b815260206004820152602f60248201527f416363657373436f6e74726f6c3a2063616e206f6e6c792072656e6f756e636560448201526e103937b632b9903337b91039b2b63360891b60648201526084015b60405180910390fd5b610265828261046d565b5050565b600061027d6420a226a4a760d91b3361038e565b6102ba5760405162461bcd60e51b815260206004820152600e60248201526d2928299d102337b93134b23232b760911b6044820152606401610252565b6001546000906102d2906001600160a01b03166104d2565b604051637daa120160e01b81529091506001600160a01b03821690637daa12019061030d908c908c908c908c908c908c908c906004016108f0565b600060405180830381600087803b15801561032757600080fd5b505af115801561033b573d6000803e3d6000fd5b50505050806001600160a01b03167f0cce47094d75dd37ae1413448bdb3b07cfc5694aeff95474c4348a0a0aeff7fd8a8a60405161037a92919061093d565b60405180910390a298975050505050505050565b6000918252602082815260408084206001600160a01b0393909316845291905290205460ff1690565b6000828152602081905260409020600101546103d2816103dc565b6101e1838361046d565b6103e6813361056c565b50565b6103f3828261038e565b610265576000828152602081815260408083206001600160a01b03851684529091529020805460ff191660011790556104293390565b6001600160a01b0316816001600160a01b0316837f2f8788117e7eff1d82e926ec794901d17c78024a50270940304540a733656f0d60405160405180910390a45050565b610477828261038e565b15610265576000828152602081815260408083206001600160a01b0385168085529252808320805460ff1916905551339285917ff6391f5c32d9c69d2a47ea670b442974b53935d1edc7fd64eb21e047a839171b9190a45050565b6000763d602d80600a3d3981f3363d3d373d3d3d363d730000008260601b60e81c176000526e5af43d82803e903d91602b57fd5bf38260781b17602052603760096000f090506001600160a01b0381166105675760405162461bcd60e51b8152602060048201526016602482015275115490cc4c4d8dce8818dc99585d194819985a5b195960521b6044820152606401610252565b919050565b610576828261038e565b61026557610583816105c5565b61058e8360206105d7565b60405160200161059f92919061097d565b60408051601f198184030181529082905262461bcd60e51b8252610252916004016109f2565b60606101b66001600160a01b03831660145b606060006105e6836002610a3b565b6105f1906002610a52565b67ffffffffffffffff81111561060957610609610a65565b6040519080825280601f01601f191660200182016040528015610633576020820181803683370190505b509050600360fc1b8160008151811061064e5761064e610a7b565b60200101906001600160f81b031916908160001a905350600f60fb1b8160018151811061067d5761067d610a7b565b60200101906001600160f81b031916908160001a90535060006106a1846002610a3b565b6106ac906001610a52565b90505b6001811115610724576f181899199a1a9b1b9c1cb0b131b232b360811b85600f16601081106106e0576106e0610a7b565b1a60f81b8282815181106106f6576106f6610a7b565b60200101906001600160f81b031916908160001a90535060049490941c9361071d81610a91565b90506106af565b5083156107735760405162461bcd60e51b815260206004820181905260248201527f537472696e67733a20686578206c656e67746820696e73756666696369656e746044820152606401610252565b9392505050565b60006020828403121561078c57600080fd5b81356001600160e01b03198116811461077357600080fd5b6000602082840312156107b657600080fd5b5035919050565b80356001600160a01b038116811461056757600080fd5b600080604083850312156107e757600080fd5b823591506107f7602084016107bd565b90509250929050565b803560ff8116811461056757600080fd5b600080600080600080600060c0888a03121561082c57600080fd5b873567ffffffffffffffff8082111561084457600080fd5b818a0191508a601f83011261085857600080fd5b81358181111561086757600080fd5b8b602082850101111561087957600080fd5b60209283019950975061088f918a0190506107bd565b945061089d604089016107bd565b935060608801359250608088013591506108b960a08901610800565b905092959891949750929550565b81835281816020850137506000828201602090810191909152601f909101601f19169091010190565b60c08152600061090460c08301898b6108c7565b6001600160a01b0397881660208401529590961660408201526060810193909352608083019190915260ff1660a0909101529392505050565b6020815260006109516020830184866108c7565b949350505050565b60005b8381101561097457818101518382015260200161095c565b50506000910152565b7f416363657373436f6e74726f6c3a206163636f756e74200000000000000000008152600083516109b5816017850160208801610959565b7001034b99036b4b9b9b4b733903937b6329607d1b60179184019182015283516109e6816028840160208801610959565b01602801949350505050565b6020815260008251806020840152610a11816040850160208701610959565b601f01601f19169190910160400192915050565b634e487b7160e01b600052601160045260246000fd5b80820281158282048414176101b6576101b6610a25565b808201808211156101b6576101b6610a25565b634e487b7160e01b600052604160045260246000fd5b634e487b7160e01b600052603260045260246000fd5b600081610aa057610aa0610a25565b50600019019056fea26469706673582212206f7ffd28f9e9ca198656164a2ca8d4c1830da6afed9c4cb2e437ad0ee8ff55fd64736f6c63430008140033","linkReferences":{}},"methodIdentifiers":{"DEFAULT_ADMIN_ROLE()":"a217fddf","createRPS(string,address,address,uint256,uint256,uint8)":"684b0efd","getRoleAdmin(bytes32)":"248a9ca3","grantRole(bytes32,address)":"2f2ff15d","hasRole(bytes32,address)":"91d14854","renounceRole(bytes32,address)":"36568abe","revokeRole(bytes32,address)":"d547741f","rpsImpl()":"4bf19d48","supportsInterface(bytes4)":"01ffc9a7"},"id":38}